{
  "_format": "hh-sol-artifact-1",
  "contractName": "Main",
  "sourceName": "contracts/Main.sol",
  "abi": [
    {
      "inputs": [],
      "stateMutability": "payable",
      "type": "constructor"
    },
    {
      "inputs": [
        {
          "internalType": "string",
          "name": "name",
          "type": "string"
        }
      ],
      "name": "NameAlreadyExists",
      "type": "error"
    },
    {
      "inputs": [
        {
          "internalType": "uint256",
          "name": "courseId",
          "type": "uint256"
        }
      ],
      "name": "NotCourseAuthor",
      "type": "error"
    },
    {
      "inputs": [
        {
          "internalType": "address",
          "name": "owner",
          "type": "address"
        }
      ],
      "name": "OwnableInvalidOwner",
      "type": "error"
    },
    {
      "inputs": [
        {
          "internalType": "address",
          "name": "account",
          "type": "address"
        }
      ],
      "name": "OwnableUnauthorizedAccount",
      "type": "error"
    },
    {
      "inputs": [
        {
          "internalType": "address",
          "name": "user",
          "type": "address"
        }
      ],
      "name": "UserAlreadyExists",
      "type": "error"
    },
    {
      "anonymous": false,
      "inputs": [
        {
          "indexed": true,
          "internalType": "uint256",
          "name": "cardId",
          "type": "uint256"
        },
        {
          "indexed": false,
          "internalType": "string",
          "name": "word",
          "type": "string"
        },
        {
          "indexed": false,
          "internalType": "string",
          "name": "meaning",
          "type": "string"
        },
        {
          "indexed": false,
          "internalType": "string",
          "name": "example",
          "type": "string"
        },
        {
          "indexed": false,
          "internalType": "uint256",
          "name": "courseId",
          "type": "uint256"
        },
        {
          "indexed": false,
          "internalType": "string",
          "name": "img",
          "type": "string"
        }
      ],
      "name": "CardChange",
      "type": "event"
    },
    {
      "anonymous": false,
      "inputs": [
        {
          "indexed": true,
          "internalType": "uint256",
          "name": "courseId",
          "type": "uint256"
        },
        {
          "indexed": false,
          "internalType": "string",
          "name": "name",
          "type": "string"
        },
        {
          "indexed": false,
          "internalType": "string",
          "name": "description",
          "type": "string"
        },
        {
          "indexed": false,
          "internalType": "address",
          "name": "author",
          "type": "address"
        },
        {
          "indexed": false,
          "internalType": "string",
          "name": "img",
          "type": "string"
        }
      ],
      "name": "CourseChange",
      "type": "event"
    },
    {
      "anonymous": false,
      "inputs": [
        {
          "indexed": true,
          "internalType": "address",
          "name": "previousOwner",
          "type": "address"
        },
        {
          "indexed": true,
          "internalType": "address",
          "name": "newOwner",
          "type": "address"
        }
      ],
      "name": "OwnershipTransferred",
      "type": "event"
    },
    {
      "anonymous": false,
      "inputs": [
        {
          "indexed": false,
          "internalType": "uint256",
          "name": "id",
          "type": "uint256"
        },
        {
          "indexed": false,
          "internalType": "string",
          "name": "name",
          "type": "string"
        },
        {
          "indexed": false,
          "internalType": "string",
          "name": "img",
          "type": "string"
        }
      ],
      "name": "UserChanged",
      "type": "event"
    },
    {
      "anonymous": false,
      "inputs": [
        {
          "indexed": false,
          "internalType": "uint256",
          "name": "id",
          "type": "uint256"
        },
        {
          "indexed": false,
          "internalType": "string",
          "name": "name",
          "type": "string"
        },
        {
          "indexed": false,
          "internalType": "string",
          "name": "img",
          "type": "string"
        }
      ],
      "name": "UserCreated",
      "type": "event"
    },
    {
      "inputs": [
        {
          "internalType": "uint256",
          "name": "cardId",
          "type": "uint256"
        }
      ],
      "name": "addUserCard",
      "outputs": [],
      "stateMutability": "nonpayable",
      "type": "function"
    },
    {
      "inputs": [],
      "name": "cardCount",
      "outputs": [
        {
          "internalType": "uint256",
          "name": "",
          "type": "uint256"
        }
      ],
      "stateMutability": "view",
      "type": "function"
    },
    {
      "inputs": [],
      "name": "courseCount",
      "outputs": [
        {
          "internalType": "uint256",
          "name": "",
          "type": "uint256"
        }
      ],
      "stateMutability": "view",
      "type": "function"
    },
    {
      "inputs": [
        {
          "internalType": "string",
          "name": "word",
          "type": "string"
        },
        {
          "internalType": "string",
          "name": "meaning",
          "type": "string"
        },
        {
          "internalType": "string",
          "name": "example",
          "type": "string"
        },
        {
          "internalType": "uint256",
          "name": "courseId",
          "type": "uint256"
        },
        {
          "internalType": "string",
          "name": "img",
          "type": "string"
        }
      ],
      "name": "createCard",
      "outputs": [],
      "stateMutability": "nonpayable",
      "type": "function"
    },
    {
      "inputs": [
        {
          "internalType": "string",
          "name": "name",
          "type": "string"
        },
        {
          "internalType": "string",
          "name": "description",
          "type": "string"
        },
        {
          "internalType": "string",
          "name": "img",
          "type": "string"
        }
      ],
      "name": "createCourse",
      "outputs": [],
      "stateMutability": "nonpayable",
      "type": "function"
    },
    {
      "inputs": [
        {
          "internalType": "string",
          "name": "name",
          "type": "string"
        },
        {
          "internalType": "string",
          "name": "img",
          "type": "string"
        }
      ],
      "name": "createUser",
      "outputs": [],
      "stateMutability": "nonpayable",
      "type": "function"
    },
    {
      "inputs": [
        {
          "internalType": "uint256",
          "name": "cardId",
          "type": "uint256"
        }
      ],
      "name": "deleteCard",
      "outputs": [],
      "stateMutability": "nonpayable",
      "type": "function"
    },
    {
      "inputs": [
        {
          "internalType": "uint256",
          "name": "courseId",
          "type": "uint256"
        }
      ],
      "name": "deleteCourse",
      "outputs": [],
      "stateMutability": "nonpayable",
      "type": "function"
    },
    {
      "inputs": [],
      "name": "deleteUser",
      "outputs": [],
      "stateMutability": "nonpayable",
      "type": "function"
    },
    {
      "inputs": [],
      "name": "getAllUsers",
      "outputs": [
        {
          "components": [
            {
              "internalType": "uint256",
              "name": "id",
              "type": "uint256"
            },
            {
              "internalType": "string",
              "name": "name",
              "type": "string"
            },
            {
              "internalType": "string",
              "name": "img",
              "type": "string"
            }
          ],
          "internalType": "struct Main.User[]",
          "name": "",
          "type": "tuple[]"
        }
      ],
      "stateMutability": "view",
      "type": "function"
    },
    {
      "inputs": [
        {
          "internalType": "uint256",
          "name": "courseId",
          "type": "uint256"
        }
      ],
      "name": "getCardsByCourse",
      "outputs": [
        {
          "components": [
            {
              "internalType": "uint256",
              "name": "id",
              "type": "uint256"
            },
            {
              "internalType": "string",
              "name": "word",
              "type": "string"
            },
            {
              "internalType": "string",
              "name": "meaning",
              "type": "string"
            },
            {
              "internalType": "string",
              "name": "example",
              "type": "string"
            },
            {
              "internalType": "uint256",
              "name": "courseId",
              "type": "uint256"
            },
            {
              "internalType": "string",
              "name": "img",
              "type": "string"
            }
          ],
          "internalType": "struct CoursesStorage.Card[]",
          "name": "",
          "type": "tuple[]"
        }
      ],
      "stateMutability": "view",
      "type": "function"
    },
    {
      "inputs": [],
      "name": "getCourses",
      "outputs": [
        {
          "components": [
            {
              "internalType": "uint256",
              "name": "id",
              "type": "uint256"
            },
            {
              "internalType": "string",
              "name": "name",
              "type": "string"
            },
            {
              "internalType": "string",
              "name": "description",
              "type": "string"
            },
            {
              "internalType": "address",
              "name": "author",
              "type": "address"
            },
            {
              "internalType": "string",
              "name": "img",
              "type": "string"
            }
          ],
          "internalType": "struct CoursesStorage.Course[]",
          "name": "",
          "type": "tuple[]"
        }
      ],
      "stateMutability": "view",
      "type": "function"
    },
    {
      "inputs": [
        {
          "internalType": "address",
          "name": "author",
          "type": "address"
        }
      ],
      "name": "getCoursesByAuthor",
      "outputs": [
        {
          "components": [
            {
              "internalType": "uint256",
              "name": "id",
              "type": "uint256"
            },
            {
              "internalType": "string",
              "name": "name",
              "type": "string"
            },
            {
              "internalType": "string",
              "name": "description",
              "type": "string"
            },
            {
              "internalType": "address",
              "name": "author",
              "type": "address"
            },
            {
              "internalType": "string",
              "name": "img",
              "type": "string"
            }
          ],
          "internalType": "struct CoursesStorage.Course[]",
          "name": "",
          "type": "tuple[]"
        }
      ],
      "stateMutability": "view",
      "type": "function"
    },
    {
      "inputs": [],
      "name": "getUser",
      "outputs": [
        {
          "components": [
            {
              "internalType": "uint256",
              "name": "id",
              "type": "uint256"
            },
            {
              "internalType": "string",
              "name": "name",
              "type": "string"
            },
            {
              "internalType": "string",
              "name": "img",
              "type": "string"
            }
          ],
          "internalType": "struct Main.User",
          "name": "",
          "type": "tuple"
        }
      ],
      "stateMutability": "view",
      "type": "function"
    },
    {
      "inputs": [
        {
          "internalType": "address",
          "name": "userAddress",
          "type": "address"
        }
      ],
      "name": "getUserByAddress",
      "outputs": [
        {
          "components": [
            {
              "internalType": "uint256",
              "name": "id",
              "type": "uint256"
            },
            {
              "internalType": "string",
              "name": "name",
              "type": "string"
            },
            {
              "internalType": "string",
              "name": "img",
              "type": "string"
            }
          ],
          "internalType": "struct Main.User",
          "name": "",
          "type": "tuple"
        }
      ],
      "stateMutability": "view",
      "type": "function"
    },
    {
      "inputs": [],
      "name": "getUserCards",
      "outputs": [
        {
          "components": [
            {
              "internalType": "uint256",
              "name": "id",
              "type": "uint256"
            },
            {
              "internalType": "string",
              "name": "word",
              "type": "string"
            },
            {
              "internalType": "string",
              "name": "meaning",
              "type": "string"
            },
            {
              "internalType": "string",
              "name": "example",
              "type": "string"
            },
            {
              "internalType": "uint256",
              "name": "courseId",
              "type": "uint256"
            },
            {
              "internalType": "string",
              "name": "img",
              "type": "string"
            }
          ],
          "internalType": "struct CoursesStorage.Card[]",
          "name": "",
          "type": "tuple[]"
        }
      ],
      "stateMutability": "view",
      "type": "function"
    },
    {
      "inputs": [
        {
          "internalType": "string",
          "name": "",
          "type": "string"
        }
      ],
      "name": "nameExists",
      "outputs": [
        {
          "internalType": "bool",
          "name": "",
          "type": "bool"
        }
      ],
      "stateMutability": "view",
      "type": "function"
    },
    {
      "inputs": [],
      "name": "owner",
      "outputs": [
        {
          "internalType": "address",
          "name": "",
          "type": "address"
        }
      ],
      "stateMutability": "view",
      "type": "function"
    },
    {
      "inputs": [],
      "name": "receivedEther",
      "outputs": [
        {
          "internalType": "uint256",
          "name": "",
          "type": "uint256"
        }
      ],
      "stateMutability": "view",
      "type": "function"
    },
    {
      "inputs": [
        {
          "internalType": "uint256",
          "name": "cardId",
          "type": "uint256"
        }
      ],
      "name": "removeUserCard",
      "outputs": [],
      "stateMutability": "nonpayable",
      "type": "function"
    },
    {
      "inputs": [],
      "name": "renounceOwnership",
      "outputs": [],
      "stateMutability": "nonpayable",
      "type": "function"
    },
    {
      "inputs": [
        {
          "internalType": "address",
          "name": "newOwner",
          "type": "address"
        }
      ],
      "name": "transferOwnership",
      "outputs": [],
      "stateMutability": "nonpayable",
      "type": "function"
    },
    {
      "inputs": [
        {
          "internalType": "uint256",
          "name": "cardId",
          "type": "uint256"
        },
        {
          "internalType": "string",
          "name": "word",
          "type": "string"
        },
        {
          "internalType": "string",
          "name": "meaning",
          "type": "string"
        },
        {
          "internalType": "string",
          "name": "example",
          "type": "string"
        },
        {
          "internalType": "string",
          "name": "img",
          "type": "string"
        }
      ],
      "name": "updateCard",
      "outputs": [],
      "stateMutability": "nonpayable",
      "type": "function"
    },
    {
      "inputs": [
        {
          "internalType": "uint256",
          "name": "courseId",
          "type": "uint256"
        },
        {
          "internalType": "string",
          "name": "name",
          "type": "string"
        },
        {
          "internalType": "string",
          "name": "description",
          "type": "string"
        },
        {
          "internalType": "string",
          "name": "img",
          "type": "string"
        }
      ],
      "name": "updateCourse",
      "outputs": [],
      "stateMutability": "nonpayable",
      "type": "function"
    },
    {
      "inputs": [
        {
          "internalType": "string",
          "name": "name",
          "type": "string"
        },
        {
          "internalType": "string",
          "name": "img",
          "type": "string"
        }
      ],
      "name": "updateUser",
      "outputs": [],
      "stateMutability": "nonpayable",
      "type": "function"
    },
    {
      "inputs": [],
      "name": "userCount",
      "outputs": [
        {
          "internalType": "uint256",
          "name": "",
          "type": "uint256"
        }
      ],
      "stateMutability": "view",
      "type": "function"
    },
    {
      "inputs": [
        {
          "internalType": "address",
          "name": "",
          "type": "address"
        }
      ],
      "name": "users",
      "outputs": [
        {
          "internalType": "uint256",
          "name": "id",
          "type": "uint256"
        },
        {
          "internalType": "string",
          "name": "name",
          "type": "string"
        },
        {
          "internalType": "string",
          "name": "img",
          "type": "string"
        }
      ],
      "stateMutability": "view",
      "type": "function"
    },
    {
      "stateMutability": "payable",
      "type": "receive"
    }
  ],
  "bytecode": "0x6080604052600060015560006005556000600d5533600073ffffffffffffffffffffffffffffffffffffffff168173ffffffffffffffffffffffffffffffffffffffff1603620000895760006040517f1e4fbdf7000000000000000000000000000000000000000000000000000000008152600401620000809190620004e8565b60405180910390fd5b6200009a81620000f760201b60201c565b50620000f16040518060400160405280600581526020017f41646d696e00000000000000000000000000000000000000000000000000000081525060405180602001604052806000815250620001bd60201b60201c565b620009f0565b6000600c60009054906101000a900473ffffffffffffffffffffffffffffffffffffffff16905081600c60006101000a81548173ffffffffffffffffffffffffffffffffffffffff021916908373ffffffffffffffffffffffffffffffffffffffff1602179055508173ffffffffffffffffffffffffffffffffffffffff168173ffffffffffffffffffffffffffffffffffffffff167f8be0079c531659141344cd1fd0a4f28419497f9722a3daafe3b4186f6b6457e060405160405180910390a35050565b81601181604051620001d091906200057e565b908152602001604051809103902060009054906101000a900460ff16156200023157806040517f4a31fcb8000000000000000000000000000000000000000000000000000000008152600401620002289190620005fa565b60405180910390fd5b6000600e60003373ffffffffffffffffffffffffffffffffffffffff1673ffffffffffffffffffffffffffffffffffffffff168152602001908152602001600020600101805462000282906200064d565b905014620002c957336040517f23ee4bac000000000000000000000000000000000000000000000000000000008152600401620002c09190620004e8565b60405180910390fd5b600d6000815480929190620002de90620006bb565b91905055506040518060600160405280600d54815260200184815260200183815250600e60003373ffffffffffffffffffffffffffffffffffffffff1673ffffffffffffffffffffffffffffffffffffffff16815260200190815260200160002060008201518160000155602082015181600101908162000360919062000909565b50604082015181600201908162000378919062000909565b509050506200038f600f33620003ce60201b60201c565b506001601184604051620003a491906200057e565b908152602001604051809103902060006101000a81548160ff021916908315150217905550505050565b6000620003fe836000018373ffffffffffffffffffffffffffffffffffffffff1660001b6200040660201b60201c565b905092915050565b60006200041a83836200048060201b60201c565b620004755782600001829080600181540180825580915050600190039060005260206000200160009091909190915055826000018054905083600101600084815260200190815260200160002081905550600190506200047a565b600090505b92915050565b600080836001016000848152602001908152602001600020541415905092915050565b600073ffffffffffffffffffffffffffffffffffffffff82169050919050565b6000620004d082620004a3565b9050919050565b620004e281620004c3565b82525050565b6000602082019050620004ff6000830184620004d7565b92915050565b600081519050919050565b600081905092915050565b60005b838110156200053b5780820151818401526020810190506200051e565b60008484015250505050565b6000620005548262000505565b62000560818562000510565b9350620005728185602086016200051b565b80840191505092915050565b60006200058c828462000547565b915081905092915050565b600082825260208201905092915050565b6000601f19601f8301169050919050565b6000620005c68262000505565b620005d2818562000597565b9350620005e48185602086016200051b565b620005ef81620005a8565b840191505092915050565b60006020820190508181036000830152620006168184620005b9565b905092915050565b7f4e487b7100000000000000000000000000000000000000000000000000000000600052602260045260246000fd5b600060028204905060018216806200066657607f821691505b6020821081036200067c576200067b6200061e565b5b50919050565b7f4e487b7100000000000000000000000000000000000000000000000000000000600052601160045260246000fd5b6000819050919050565b6000620006c882620006b1565b91507fffffffffffffffffffffffffffffffffffffffffffffffffffffffffffffffff8203620006fd57620006fc62000682565b5b600182019050919050565b7f4e487b7100000000000000000000000000000000000000000000000000000000600052604160045260246000fd5b60008190508160005260206000209050919050565b60006020601f8301049050919050565b600082821b905092915050565b6000600883026200079b7fffffffffffffffffffffffffffffffffffffffffffffffffffffffffffffffff826200075c565b620007a786836200075c565b95508019841693508086168417925050509392505050565b6000819050919050565b6000620007ea620007e4620007de84620006b1565b620007bf565b620006b1565b9050919050565b6000819050919050565b6200080683620007c9565b6200081e6200081582620007f1565b84845462000769565b825550505050565b600090565b6200083562000826565b62000842818484620007fb565b505050565b5b818110156200086a576200085e6000826200082b565b60018101905062000848565b5050565b601f821115620008b957620008838162000737565b6200088e846200074c565b810160208510156200089e578190505b620008b6620008ad856200074c565b83018262000847565b50505b505050565b600082821c905092915050565b6000620008de60001984600802620008be565b1980831691505092915050565b6000620008f98383620008cb565b9150826002028217905092915050565b620009148262000505565b67ffffffffffffffff81111562000930576200092f62000708565b5b6200093c82546200064d565b620009498282856200086e565b600060209050601f8311600181146200098157600084156200096c578287015190505b620009788582620008eb565b865550620009e8565b601f198416620009918662000737565b60005b82811015620009bb5784890151825560018201915060208501945060208101905062000994565b86831015620009db5784890151620009d7601f891682620008cb565b8355505b6001600288020188555050505b505050505050565b6142ec8062000a006000396000f3fe6080604052600436106101a05760003560e01c8063832880e7116100ec578063cc1264791161008a578063dd4a242511610064578063dd4a2425146105c4578063e2842d79146105ed578063e6676ad114610618578063f2fde38b14610641576101be565b8063cc12647914610531578063cc637afe1461055c578063cd53e45514610599576101be565b80638da5cb5b116100c65780638da5cb5b146104755780638ec99d90146104a05780639dad8d22146104c9578063a87430ba146104f2576101be565b8063832880e7146103f857806387b162b51461042357806389d45b861461044c576101be565b80635e1acf651161015957806369c212f61161013357806369c212f61461033e5780636a264f011461037b57806370e24a2f146103a4578063715018a6146103e1576101be565b80635e1acf65146102c157806364b48788146102ea5780636605515914610313576101be565b8063026ff05e146101c357806307973ccf146101da5780631b6cde10146102055780632194f3141461023057806348bf10c91461025b5780635069ca2e14610284576101be565b366101be57346000808282546101b69190613067565b925050819055005b600080fd5b3480156101cf57600080fd5b506101d861066a565b005b3480156101e657600080fd5b506101ef61075a565b6040516101fc91906130aa565b60405180910390f35b34801561021157600080fd5b5061021a610760565b60405161022791906130aa565b60405180910390f35b34801561023c57600080fd5b50610245610766565b60405161025291906132c4565b60405180910390f35b34801561026757600080fd5b50610282600480360381019061027d919061345b565b610b51565b005b34801561029057600080fd5b506102ab60048036038101906102a69190613546565b610cfc565b6040516102b891906132c4565b60405180910390f35b3480156102cd57600080fd5b506102e860048036038101906102e39190613546565b611065565b005b3480156102f657600080fd5b50610311600480360381019061030c9190613546565b6111cb565b005b34801561031f57600080fd5b50610328611217565b60405161033591906130aa565b60405180910390f35b34801561034a57600080fd5b50610365600480360381019061036091906135d1565b61121d565b6040516103729190613655565b60405180910390f35b34801561038757600080fd5b506103a2600480360381019061039d9190613677565b6113a4565b005b3480156103b057600080fd5b506103cb60048036038101906103c691906135d1565b61158d565b6040516103d891906138b7565b60405180910390f35b3480156103ed57600080fd5b506103f6611934565b005b34801561040457600080fd5b5061040d611948565b60405161041a9190613655565b60405180910390f35b34801561042f57600080fd5b5061044a600480360381019061044591906138d9565b611acd565b005b34801561045857600080fd5b50610473600480360381019061046e9190613951565b611cc4565b005b34801561048157600080fd5b5061048a611e64565b6040516104979190613a07565b60405180910390f35b3480156104ac57600080fd5b506104c760048036038101906104c29190613a22565b611e8e565b005b3480156104d557600080fd5b506104f060048036038101906104eb9190613546565b611fe6565b005b3480156104fe57600080fd5b50610519600480360381019061051491906135d1565b61215b565b60405161052893929190613b27565b60405180910390f35b34801561053d57600080fd5b50610546612295565b60405161055391906138b7565b60405180910390f35b34801561056857600080fd5b50610583600480360381019061057e9190613b6c565b612583565b6040516105909190613bd0565b60405180910390f35b3480156105a557600080fd5b506105ae6125b9565b6040516105bb91906130aa565b60405180910390f35b3480156105d057600080fd5b506105eb60048036038101906105e691906138d9565b6125bf565b005b3480156105f957600080fd5b506106026127ff565b60405161060f9190613d04565b60405180910390f35b34801561062457600080fd5b5061063f600480360381019061063a9190613546565b612a39565b005b34801561064d57600080fd5b50610668600480360381019061066391906135d1565b612a85565b005b60006011600e60003373ffffffffffffffffffffffffffffffffffffffff1673ffffffffffffffffffffffffffffffffffffffff1681526020019081526020016000206001016040516106bd9190613e29565b908152602001604051809103902060006101000a81548160ff0219169083151502179055506106ed600f33612b0b565b50600e60003373ffffffffffffffffffffffffffffffffffffffff1673ffffffffffffffffffffffffffffffffffffffff1681526020019081526020016000206000808201600090556001820160006107469190612f35565b6002820160006107569190612f35565b5050565b600d5481565b60055481565b606060006107b1600b60003373ffffffffffffffffffffffffffffffffffffffff1673ffffffffffffffffffffffffffffffffffffffff168152602001908152602001600020612b3b565b67ffffffffffffffff8111156107ca576107c9613330565b5b60405190808252806020026020018201604052801561080357816020015b6107f0612f75565b8152602001906001900390816107e85790505b50905060005b610850600b60003373ffffffffffffffffffffffffffffffffffffffff1673ffffffffffffffffffffffffffffffffffffffff168152602001908152602001600020612b3b565b811015610b4957600660006108a3600b60003373ffffffffffffffffffffffffffffffffffffffff1673ffffffffffffffffffffffffffffffffffffffff16815260200190815260200160002084612b50565b81526020019081526020016000206040518060c0016040529081600082015481526020016001820180546108d690613d55565b80601f016020809104026020016040519081016040528092919081815260200182805461090290613d55565b801561094f5780601f106109245761010080835404028352916020019161094f565b820191906000526020600020905b81548152906001019060200180831161093257829003601f168201915b5050505050815260200160028201805461096890613d55565b80601f016020809104026020016040519081016040528092919081815260200182805461099490613d55565b80156109e15780601f106109b6576101008083540402835291602001916109e1565b820191906000526020600020905b8154815290600101906020018083116109c457829003601f168201915b505050505081526020016003820180546109fa90613d55565b80601f0160208091040260200160405190810160405280929190818152602001828054610a2690613d55565b8015610a735780601f10610a4857610100808354040283529160200191610a73565b820191906000526020600020905b815481529060010190602001808311610a5657829003601f168201915b5050505050815260200160048201548152602001600582018054610a9690613d55565b80601f0160208091040260200160405190810160405280929190818152602001828054610ac290613d55565b8015610b0f5780601f10610ae457610100808354040283529160200191610b0f565b820191906000526020600020905b815481529060010190602001808311610af257829003601f168201915b505050505081525050828281518110610b2b57610b2a613e40565b5b60200260200101819052508080610b4190613e6f565b915050610809565b508091505090565b60066000868152602001908152602001600020600401543373ffffffffffffffffffffffffffffffffffffffff166002600083815260200190815260200160002060030160009054906101000a900473ffffffffffffffffffffffffffffffffffffffff1673ffffffffffffffffffffffffffffffffffffffff1614610c0e57806040517ff034e054000000000000000000000000000000000000000000000000000000008152600401610c0591906130aa565b60405180910390fd5b84600660008881526020019081526020016000206001019081610c31919061404e565b5083600660008881526020019081526020016000206002019081610c55919061404e565b5082600660008881526020019081526020016000206003019081610c79919061404e565b5081600660008881526020019081526020016000206005019081610c9d919061404e565b50857fe2898b4a13a1565a4873eaafeeb3ee6c6e2732b4cb5a9931bcfd3c5076119935868686600660008c81526020019081526020016000206004015487604051610cec959493929190614120565b60405180910390a2505050505050565b60606000610d1b600a6000858152602001908152602001600020612b3b565b67ffffffffffffffff811115610d3457610d33613330565b5b604051908082528060200260200182016040528015610d6d57816020015b610d5a612f75565b815260200190600190039081610d525790505b50905060005b610d8e600a6000868152602001908152602001600020612b3b565b81101561105b5760066000610db5600a600088815260200190815260200160002084612b50565b81526020019081526020016000206040518060c001604052908160008201548152602001600182018054610de890613d55565b80601f0160208091040260200160405190810160405280929190818152602001828054610e1490613d55565b8015610e615780601f10610e3657610100808354040283529160200191610e61565b820191906000526020600020905b815481529060010190602001808311610e4457829003601f168201915b50505050508152602001600282018054610e7a90613d55565b80601f0160208091040260200160405190810160405280929190818152602001828054610ea690613d55565b8015610ef35780601f10610ec857610100808354040283529160200191610ef3565b820191906000526020600020905b815481529060010190602001808311610ed657829003601f168201915b50505050508152602001600382018054610f0c90613d55565b80601f0160208091040260200160405190810160405280929190818152602001828054610f3890613d55565b8015610f855780601f10610f5a57610100808354040283529160200191610f85565b820191906000526020600020905b815481529060010190602001808311610f6857829003601f168201915b5050505050815260200160048201548152602001600582018054610fa890613d55565b80601f0160208091040260200160405190810160405280929190818152602001828054610fd490613d55565b80156110215780601f10610ff657610100808354040283529160200191611021565b820191906000526020600020905b81548152906001019060200180831161100457829003601f168201915b50505050508152505082828151811061103d5761103c613e40565b5b6020026020010181905250808061105390613e6f565b915050610d73565b5080915050919050565b60066000828152602001908152602001600020600401543373ffffffffffffffffffffffffffffffffffffffff166002600083815260200190815260200160002060030160009054906101000a900473ffffffffffffffffffffffffffffffffffffffff1673ffffffffffffffffffffffffffffffffffffffff161461112257806040517ff034e05400000000000000000000000000000000000000000000000000000000815260040161111991906130aa565b60405180910390fd5b611154600a60006006600086815260200190815260200160002060040154815260200190815260200160002083612b6a565b50611160600783612b6a565b506006600083815260200190815260200160002060008082016000905560018201600061118d9190612f35565b60028201600061119d9190612f35565b6003820160006111ad9190612f35565b60048201600090556005820160006111c59190612f35565b50505050565b611213600b60003373ffffffffffffffffffffffffffffffffffffffff1673ffffffffffffffffffffffffffffffffffffffff16815260200190815260200160002082612b84565b5050565b60015481565b611225612fab565b600e60008373ffffffffffffffffffffffffffffffffffffffff1673ffffffffffffffffffffffffffffffffffffffff1681526020019081526020016000206040518060600160405290816000820154815260200160018201805461128990613d55565b80601f01602080910402602001604051908101604052809291908181526020018280546112b590613d55565b80156113025780601f106112d757610100808354040283529160200191611302565b820191906000526020600020905b8154815290600101906020018083116112e557829003601f168201915b5050505050815260200160028201805461131b90613d55565b80601f016020809104026020016040519081016040528092919081815260200182805461134790613d55565b80156113945780601f1061136957610100808354040283529160200191611394565b820191906000526020600020905b81548152906001019060200180831161137757829003601f168201915b5050505050815250509050919050565b813373ffffffffffffffffffffffffffffffffffffffff166002600083815260200190815260200160002060030160009054906101000a900473ffffffffffffffffffffffffffffffffffffffff1673ffffffffffffffffffffffffffffffffffffffff161461144b57806040517ff034e05400000000000000000000000000000000000000000000000000000000815260040161144291906130aa565b60405180910390fd5b6005600081548092919061145e90613e6f565b91905055506040518060c001604052806005548152602001878152602001868152602001858152602001848152602001838152506006600060055481526020019081526020016000206000820151816000015560208201518160010190816114c6919061404e565b5060408201518160020190816114dc919061404e565b5060608201518160030190816114f2919061404e565b506080820151816004015560a0820151816005019081611512919061404e565b50905050611534600a6000858152602001908152602001600020600554612b84565b506115426007600554612b84565b506005547fe2898b4a13a1565a4873eaafeeb3ee6c6e2732b4cb5a9931bcfd3c5076119935878787878760405161157d959493929190614120565b60405180910390a2505050505050565b606060006115d8600960008573ffffffffffffffffffffffffffffffffffffffff1673ffffffffffffffffffffffffffffffffffffffff168152602001908152602001600020612b3b565b67ffffffffffffffff8111156115f1576115f0613330565b5b60405190808252806020026020018201604052801561162a57816020015b611617612fcc565b81526020019060019003908161160f5790505b50905060005b611677600960008673ffffffffffffffffffffffffffffffffffffffff1673ffffffffffffffffffffffffffffffffffffffff168152602001908152602001600020612b3b565b81101561192a57600260006116ca600960008873ffffffffffffffffffffffffffffffffffffffff1673ffffffffffffffffffffffffffffffffffffffff16815260200190815260200160002084612b50565b81526020019081526020016000206040518060a0016040529081600082015481526020016001820180546116fd90613d55565b80601f016020809104026020016040519081016040528092919081815260200182805461172990613d55565b80156117765780601f1061174b57610100808354040283529160200191611776565b820191906000526020600020905b81548152906001019060200180831161175957829003601f168201915b5050505050815260200160028201805461178f90613d55565b80601f01602080910402602001604051908101604052809291908181526020018280546117bb90613d55565b80156118085780601f106117dd57610100808354040283529160200191611808565b820191906000526020600020905b8154815290600101906020018083116117eb57829003601f168201915b505050505081526020016003820160009054906101000a900473ffffffffffffffffffffffffffffffffffffffff1673ffffffffffffffffffffffffffffffffffffffff1673ffffffffffffffffffffffffffffffffffffffff16815260200160048201805461187790613d55565b80601f01602080910402602001604051908101604052809291908181526020018280546118a390613d55565b80156118f05780601f106118c5576101008083540402835291602001916118f0565b820191906000526020600020905b8154815290600101906020018083116118d357829003601f168201915b50505050508152505082828151811061190c5761190b613e40565b5b6020026020010181905250808061192290613e6f565b915050611630565b5080915050919050565b61193c612b9e565b6119466000612c25565b565b611950612fab565b600e60003373ffffffffffffffffffffffffffffffffffffffff1673ffffffffffffffffffffffffffffffffffffffff168152602001908152602001600020604051806060016040529081600082015481526020016001820180546119b490613d55565b80601f01602080910402602001604051908101604052809291908181526020018280546119e090613d55565b8015611a2d5780601f10611a0257610100808354040283529160200191611a2d565b820191906000526020600020905b815481529060010190602001808311611a1057829003601f168201915b50505050508152602001600282018054611a4690613d55565b80601f0160208091040260200160405190810160405280929190818152602001828054611a7290613d55565b8015611abf5780601f10611a9457610100808354040283529160200191611abf565b820191906000526020600020905b815481529060010190602001808311611aa257829003601f168201915b505050505081525050905090565b81601181604051611ade91906141c0565b908152602001604051809103902060009054906101000a900460ff1615611b3c57806040517f4a31fcb8000000000000000000000000000000000000000000000000000000008152600401611b3391906141d7565b60405180910390fd5b6000600e60003373ffffffffffffffffffffffffffffffffffffffff1673ffffffffffffffffffffffffffffffffffffffff1681526020019081526020016000206001018054611b8b90613d55565b905014611bcf57336040517f23ee4bac000000000000000000000000000000000000000000000000000000008152600401611bc69190613a07565b60405180910390fd5b600d6000815480929190611be290613e6f565b91905055506040518060600160405280600d54815260200184815260200183815250600e60003373ffffffffffffffffffffffffffffffffffffffff1673ffffffffffffffffffffffffffffffffffffffff168152602001908152602001600020600082015181600001556020820151816001019081611c62919061404e565b506040820151816002019081611c78919061404e565b50905050611c87600f33612ceb565b506001601184604051611c9a91906141c0565b908152602001604051809103902060006101000a81548160ff021916908315150217905550505050565b60016000815480929190611cd790613e6f565b91905055506040518060a0016040528060015481526020018481526020018381526020013373ffffffffffffffffffffffffffffffffffffffff16815260200182815250600260006001548152602001908152602001600020600082015181600001556020820151816001019081611d4f919061404e565b506040820151816002019081611d65919061404e565b5060608201518160030160006101000a81548173ffffffffffffffffffffffffffffffffffffffff021916908373ffffffffffffffffffffffffffffffffffffffff1602179055506080820151816004019081611dc2919061404e565b50905050611e10600960003373ffffffffffffffffffffffffffffffffffffffff1673ffffffffffffffffffffffffffffffffffffffff168152602001908152602001600020600154612b84565b50611e1e6003600154612b84565b506001547fb8f86a692781437a791274be51de7d8eb905efece7fbc2d381b9ecbdb4e064a084843385604051611e5794939291906141f9565b60405180910390a2505050565b6000600c60009054906101000a900473ffffffffffffffffffffffffffffffffffffffff16905090565b833373ffffffffffffffffffffffffffffffffffffffff166002600083815260200190815260200160002060030160009054906101000a900473ffffffffffffffffffffffffffffffffffffffff1673ffffffffffffffffffffffffffffffffffffffff1614611f3557806040517ff034e054000000000000000000000000000000000000000000000000000000008152600401611f2c91906130aa565b60405180910390fd5b83600260008781526020019081526020016000206001019081611f58919061404e565b5082600260008781526020019081526020016000206002019081611f7c919061404e565b5081600260008781526020019081526020016000206004019081611fa0919061404e565b50847fb8f86a692781437a791274be51de7d8eb905efece7fbc2d381b9ecbdb4e064a085853386604051611fd794939291906141f9565b60405180910390a25050505050565b803373ffffffffffffffffffffffffffffffffffffffff166002600083815260200190815260200160002060030160009054906101000a900473ffffffffffffffffffffffffffffffffffffffff1673ffffffffffffffffffffffffffffffffffffffff161461208d57806040517ff034e05400000000000000000000000000000000000000000000000000000000815260040161208491906130aa565b60405180910390fd5b6120d5600960003373ffffffffffffffffffffffffffffffffffffffff1673ffffffffffffffffffffffffffffffffffffffff16815260200190815260200160002083612b6a565b506120e1600383612b6a565b506002600083815260200190815260200160002060008082016000905560018201600061210e9190612f35565b60028201600061211e9190612f35565b6003820160006101000a81549073ffffffffffffffffffffffffffffffffffffffff02191690556004820160006121559190612f35565b50505050565b600e60205280600052604060002060009150905080600001549080600101805461218490613d55565b80601f01602080910402602001604051908101604052809291908181526020018280546121b090613d55565b80156121fd5780601f106121d2576101008083540402835291602001916121fd565b820191906000526020600020905b8154815290600101906020018083116121e057829003601f168201915b50505050509080600201805461221290613d55565b80601f016020809104026020016040519081016040528092919081815260200182805461223e90613d55565b801561228b5780601f106122605761010080835404028352916020019161228b565b820191906000526020600020905b81548152906001019060200180831161226e57829003601f168201915b5050505050905083565b606060006122a36003612b3b565b67ffffffffffffffff8111156122bc576122bb613330565b5b6040519080825280602002602001820160405280156122f557816020015b6122e2612fcc565b8152602001906001900390816122da5790505b50905060005b6123056003612b3b565b81101561257b576002600061231b600384612b50565b81526020019081526020016000206040518060a00160405290816000820154815260200160018201805461234e90613d55565b80601f016020809104026020016040519081016040528092919081815260200182805461237a90613d55565b80156123c75780601f1061239c576101008083540402835291602001916123c7565b820191906000526020600020905b8154815290600101906020018083116123aa57829003601f168201915b505050505081526020016002820180546123e090613d55565b80601f016020809104026020016040519081016040528092919081815260200182805461240c90613d55565b80156124595780601f1061242e57610100808354040283529160200191612459565b820191906000526020600020905b81548152906001019060200180831161243c57829003601f168201915b505050505081526020016003820160009054906101000a900473ffffffffffffffffffffffffffffffffffffffff1673ffffffffffffffffffffffffffffffffffffffff1673ffffffffffffffffffffffffffffffffffffffff1681526020016004820180546124c890613d55565b80601f01602080910402602001604051908101604052809291908181526020018280546124f490613d55565b80156125415780601f1061251657610100808354040283529160200191612541565b820191906000526020600020905b81548152906001019060200180831161252457829003601f168201915b50505050508152505082828151811061255d5761255c613e40565b5b6020026020010181905250808061257390613e6f565b9150506122fb565b508091505090565b6011818051602081018201805184825260208301602085012081835280955050505050506000915054906101000a900460ff1681565b60005481565b816011816040516125d091906141c0565b908152602001604051809103902060009054906101000a900460ff161561262e57806040517f4a31fcb800000000000000000000000000000000000000000000000000000000815260040161262591906141d7565b60405180910390fd5b600160118460405161264091906141c0565b908152602001604051809103902060006101000a81548160ff02191690831515021790555060006011600e60003373ffffffffffffffffffffffffffffffffffffffff1673ffffffffffffffffffffffffffffffffffffffff1681526020019081526020016000206001016040516126b89190613e29565b908152602001604051809103902060006101000a81548160ff02191690831515021790555082600e60003373ffffffffffffffffffffffffffffffffffffffff1673ffffffffffffffffffffffffffffffffffffffff168152602001908152602001600020600101908161272c919061404e565b5081600e60003373ffffffffffffffffffffffffffffffffffffffff1673ffffffffffffffffffffffffffffffffffffffff168152602001908152602001600020600201908161277c919061404e565b507f3c5baa57db641fad76a063f5ab0a056e109d50165f6a66ba4c55c5aa98369625600e60003373ffffffffffffffffffffffffffffffffffffffff1673ffffffffffffffffffffffffffffffffffffffff1681526020019081526020016000206000015484846040516127f293929190613b27565b60405180910390a1505050565b6060612809612b9e565b6000612815600f612d1b565b67ffffffffffffffff81111561282e5761282d613330565b5b60405190808252806020026020018201604052801561286757816020015b612854612fab565b81526020019060019003908161284c5790505b50905060005b612877600f612d1b565b811015612a3157600e600061288d600f84612d30565b73ffffffffffffffffffffffffffffffffffffffff1673ffffffffffffffffffffffffffffffffffffffff168152602001908152602001600020604051806060016040529081600082015481526020016001820180546128ec90613d55565b80601f016020809104026020016040519081016040528092919081815260200182805461291890613d55565b80156129655780601f1061293a57610100808354040283529160200191612965565b820191906000526020600020905b81548152906001019060200180831161294857829003601f168201915b5050505050815260200160028201805461297e90613d55565b80601f01602080910402602001604051908101604052809291908181526020018280546129aa90613d55565b80156129f75780601f106129cc576101008083540402835291602001916129f7565b820191906000526020600020905b8154815290600101906020018083116129da57829003601f168201915b505050505081525050828281518110612a1357612a12613e40565b5b60200260200101819052508080612a2990613e6f565b91505061286d565b508091505090565b612a81600b60003373ffffffffffffffffffffffffffffffffffffffff1673ffffffffffffffffffffffffffffffffffffffff16815260200190815260200160002082612b6a565b5050565b612a8d612b9e565b600073ffffffffffffffffffffffffffffffffffffffff168173ffffffffffffffffffffffffffffffffffffffff1603612aff5760006040517f1e4fbdf7000000000000000000000000000000000000000000000000000000008152600401612af69190613a07565b60405180910390fd5b612b0881612c25565b50565b6000612b33836000018373ffffffffffffffffffffffffffffffffffffffff1660001b612d4a565b905092915050565b6000612b4982600001612e5e565b9050919050565b6000612b5f8360000183612e6f565b60001c905092915050565b6000612b7c836000018360001b612d4a565b905092915050565b6000612b96836000018360001b612e9a565b905092915050565b612ba6612f0a565b73ffffffffffffffffffffffffffffffffffffffff16612bc4611e64565b73ffffffffffffffffffffffffffffffffffffffff1614612c2357612be7612f0a565b6040517f118cdaa7000000000000000000000000000000000000000000000000000000008152600401612c1a9190613a07565b60405180910390fd5b565b6000600c60009054906101000a900473ffffffffffffffffffffffffffffffffffffffff16905081600c60006101000a81548173ffffffffffffffffffffffffffffffffffffffff021916908373ffffffffffffffffffffffffffffffffffffffff1602179055508173ffffffffffffffffffffffffffffffffffffffff168173ffffffffffffffffffffffffffffffffffffffff167f8be0079c531659141344cd1fd0a4f28419497f9722a3daafe3b4186f6b6457e060405160405180910390a35050565b6000612d13836000018373ffffffffffffffffffffffffffffffffffffffff1660001b612e9a565b905092915050565b6000612d2982600001612e5e565b9050919050565b6000612d3f8360000183612e6f565b60001c905092915050565b60008083600101600084815260200190815260200160002054905060008114612e52576000600182612d7c9190614253565b9050600060018660000180549050612d949190614253565b9050808214612e03576000866000018281548110612db557612db4613e40565b5b9060005260206000200154905080876000018481548110612dd957612dd8613e40565b5b90600052602060002001819055508387600101600083815260200190815260200160002081905550505b85600001805480612e1757612e16614287565b5b600190038181906000526020600020016000905590558560010160008681526020019081526020016000206000905560019350505050612e58565b60009150505b92915050565b600081600001805490509050919050565b6000826000018281548110612e8757612e86613e40565b5b9060005260206000200154905092915050565b6000612ea68383612f12565b612eff578260000182908060018154018082558091505060019003906000526020600020016000909190919091505582600001805490508360010160008481526020019081526020016000208190555060019050612f04565b600090505b92915050565b600033905090565b600080836001016000848152602001908152602001600020541415905092915050565b508054612f4190613d55565b6000825580601f10612f535750612f72565b601f016020900490600052602060002090810190612f719190613011565b5b50565b6040518060c001604052806000815260200160608152602001606081526020016060815260200160008152602001606081525090565b60405180606001604052806000815260200160608152602001606081525090565b6040518060a00160405280600081526020016060815260200160608152602001600073ffffffffffffffffffffffffffffffffffffffff168152602001606081525090565b5b8082111561302a576000816000905550600101613012565b5090565b6000819050919050565b7f4e487b7100000000000000000000000000000000000000000000000000000000600052601160045260246000fd5b60006130728261302e565b915061307d8361302e565b925082820190508082111561309557613094613038565b5b92915050565b6130a48161302e565b82525050565b60006020820190506130bf600083018461309b565b92915050565b600081519050919050565b600082825260208201905092915050565b6000819050602082019050919050565b6130fa8161302e565b82525050565b600081519050919050565b600082825260208201905092915050565b60005b8381101561313a57808201518184015260208101905061311f565b60008484015250505050565b6000601f19601f8301169050919050565b600061316282613100565b61316c818561310b565b935061317c81856020860161311c565b61318581613146565b840191505092915050565b600060c0830160008301516131a860008601826130f1565b50602083015184820360208601526131c08282613157565b915050604083015184820360408601526131da8282613157565b915050606083015184820360608601526131f48282613157565b915050608083015161320960808601826130f1565b5060a083015184820360a08601526132218282613157565b9150508091505092915050565b600061323a8383613190565b905092915050565b6000602082019050919050565b600061325a826130c5565b61326481856130d0565b935083602082028501613276856130e1565b8060005b858110156132b25784840389528151613293858261322e565b945061329e83613242565b925060208a0199505060018101905061327a565b50829750879550505050505092915050565b600060208201905081810360008301526132de818461324f565b905092915050565b6000604051905090565b600080fd5b600080fd5b6133038161302e565b811461330e57600080fd5b50565b600081359050613320816132fa565b92915050565b600080fd5b600080fd5b7f4e487b7100000000000000000000000000000000000000000000000000000000600052604160045260246000fd5b61336882613146565b810181811067ffffffffffffffff8211171561338757613386613330565b5b80604052505050565b600061339a6132e6565b90506133a6828261335f565b919050565b600067ffffffffffffffff8211156133c6576133c5613330565b5b6133cf82613146565b9050602081019050919050565b82818337600083830152505050565b60006133fe6133f9846133ab565b613390565b90508281526020810184848401111561341a5761341961332b565b5b6134258482856133dc565b509392505050565b600082601f83011261344257613441613326565b5b81356134528482602086016133eb565b91505092915050565b600080600080600060a08688031215613477576134766132f0565b5b600061348588828901613311565b955050602086013567ffffffffffffffff8111156134a6576134a56132f5565b5b6134b28882890161342d565b945050604086013567ffffffffffffffff8111156134d3576134d26132f5565b5b6134df8882890161342d565b935050606086013567ffffffffffffffff811115613500576134ff6132f5565b5b61350c8882890161342d565b925050608086013567ffffffffffffffff81111561352d5761352c6132f5565b5b6135398882890161342d565b9150509295509295909350565b60006020828403121561355c5761355b6132f0565b5b600061356a84828501613311565b91505092915050565b600073ffffffffffffffffffffffffffffffffffffffff82169050919050565b600061359e82613573565b9050919050565b6135ae81613593565b81146135b957600080fd5b50565b6000813590506135cb816135a5565b92915050565b6000602082840312156135e7576135e66132f0565b5b60006135f5848285016135bc565b91505092915050565b600060608301600083015161361660008601826130f1565b506020830151848203602086015261362e8282613157565b915050604083015184820360408601526136488282613157565b9150508091505092915050565b6000602082019050818103600083015261366f81846135fe565b905092915050565b600080600080600060a08688031215613693576136926132f0565b5b600086013567ffffffffffffffff8111156136b1576136b06132f5565b5b6136bd8882890161342d565b955050602086013567ffffffffffffffff8111156136de576136dd6132f5565b5b6136ea8882890161342d565b945050604086013567ffffffffffffffff81111561370b5761370a6132f5565b5b6137178882890161342d565b935050606061372888828901613311565b925050608086013567ffffffffffffffff811115613749576137486132f5565b5b6137558882890161342d565b9150509295509295909350565b600081519050919050565b600082825260208201905092915050565b6000819050602082019050919050565b61379781613593565b82525050565b600060a0830160008301516137b560008601826130f1565b50602083015184820360208601526137cd8282613157565b915050604083015184820360408601526137e78282613157565b91505060608301516137fc606086018261378e565b50608083015184820360808601526138148282613157565b9150508091505092915050565b600061382d838361379d565b905092915050565b6000602082019050919050565b600061384d82613762565b613857818561376d565b9350836020820285016138698561377e565b8060005b858110156138a557848403895281516138868582613821565b945061389183613835565b925060208a0199505060018101905061386d565b50829750879550505050505092915050565b600060208201905081810360008301526138d18184613842565b905092915050565b600080604083850312156138f0576138ef6132f0565b5b600083013567ffffffffffffffff81111561390e5761390d6132f5565b5b61391a8582860161342d565b925050602083013567ffffffffffffffff81111561393b5761393a6132f5565b5b6139478582860161342d565b9150509250929050565b60008060006060848603121561396a576139696132f0565b5b600084013567ffffffffffffffff811115613988576139876132f5565b5b6139948682870161342d565b935050602084013567ffffffffffffffff8111156139b5576139b46132f5565b5b6139c18682870161342d565b925050604084013567ffffffffffffffff8111156139e2576139e16132f5565b5b6139ee8682870161342d565b9150509250925092565b613a0181613593565b82525050565b6000602082019050613a1c60008301846139f8565b92915050565b60008060008060808587031215613a3c57613a3b6132f0565b5b6000613a4a87828801613311565b945050602085013567ffffffffffffffff811115613a6b57613a6a6132f5565b5b613a778782880161342d565b935050604085013567ffffffffffffffff811115613a9857613a976132f5565b5b613aa48782880161342d565b925050606085013567ffffffffffffffff811115613ac557613ac46132f5565b5b613ad18782880161342d565b91505092959194509250565b600082825260208201905092915050565b6000613af982613100565b613b038185613add565b9350613b1381856020860161311c565b613b1c81613146565b840191505092915050565b6000606082019050613b3c600083018661309b565b8181036020830152613b4e8185613aee565b90508181036040830152613b628184613aee565b9050949350505050565b600060208284031215613b8257613b816132f0565b5b600082013567ffffffffffffffff811115613ba057613b9f6132f5565b5b613bac8482850161342d565b91505092915050565b60008115159050919050565b613bca81613bb5565b82525050565b6000602082019050613be56000830184613bc1565b92915050565b600081519050919050565b600082825260208201905092915050565b6000819050602082019050919050565b6000606083016000830151613c2f60008601826130f1565b5060208301518482036020860152613c478282613157565b91505060408301518482036040860152613c618282613157565b9150508091505092915050565b6000613c7a8383613c17565b905092915050565b6000602082019050919050565b6000613c9a82613beb565b613ca48185613bf6565b935083602082028501613cb685613c07565b8060005b85811015613cf25784840389528151613cd38582613c6e565b9450613cde83613c82565b925060208a01995050600181019050613cba565b50829750879550505050505092915050565b60006020820190508181036000830152613d1e8184613c8f565b905092915050565b7f4e487b7100000000000000000000000000000000000000000000000000000000600052602260045260246000fd5b60006002820490506001821680613d6d57607f821691505b602082108103613d8057613d7f613d26565b5b50919050565b600081905092915050565b60008190508160005260206000209050919050565b60008154613db381613d55565b613dbd8186613d86565b94506001821660008114613dd85760018114613ded57613e20565b60ff1983168652811515820286019350613e20565b613df685613d91565b60005b83811015613e1857815481890152600182019150602081019050613df9565b838801955050505b50505092915050565b6000613e358284613da6565b915081905092915050565b7f4e487b7100000000000000000000000000000000000000000000000000000000600052603260045260246000fd5b6000613e7a8261302e565b91507fffffffffffffffffffffffffffffffffffffffffffffffffffffffffffffffff8203613eac57613eab613038565b5b600182019050919050565b60006020601f8301049050919050565b600082821b905092915050565b600060088302613f047fffffffffffffffffffffffffffffffffffffffffffffffffffffffffffffffff82613ec7565b613f0e8683613ec7565b95508019841693508086168417925050509392505050565b6000819050919050565b6000613f4b613f46613f418461302e565b613f26565b61302e565b9050919050565b6000819050919050565b613f6583613f30565b613f79613f7182613f52565b848454613ed4565b825550505050565b600090565b613f8e613f81565b613f99818484613f5c565b505050565b5b81811015613fbd57613fb2600082613f86565b600181019050613f9f565b5050565b601f82111561400257613fd381613d91565b613fdc84613eb7565b81016020851015613feb578190505b613fff613ff785613eb7565b830182613f9e565b50505b505050565b600082821c905092915050565b600061402560001984600802614007565b1980831691505092915050565b600061403e8383614014565b9150826002028217905092915050565b61405782613100565b67ffffffffffffffff8111156140705761406f613330565b5b61407a8254613d55565b614085828285613fc1565b600060209050601f8311600181146140b857600084156140a6578287015190505b6140b08582614032565b865550614118565b601f1984166140c686613d91565b60005b828110156140ee578489015182556001820191506020850194506020810190506140c9565b8683101561410b5784890151614107601f891682614014565b8355505b6001600288020188555050505b505050505050565b600060a082019050818103600083015261413a8188613aee565b9050818103602083015261414e8187613aee565b905081810360408301526141628186613aee565b9050614171606083018561309b565b81810360808301526141838184613aee565b90509695505050505050565b600061419a82613100565b6141a48185613d86565b93506141b481856020860161311c565b80840191505092915050565b60006141cc828461418f565b915081905092915050565b600060208201905081810360008301526141f18184613aee565b905092915050565b600060808201905081810360008301526142138187613aee565b905081810360208301526142278186613aee565b905061423660408301856139f8565b81810360608301526142488184613aee565b905095945050505050565b600061425e8261302e565b91506142698361302e565b925082820390508181111561428157614280613038565b5b92915050565b7f4e487b7100000000000000000000000000000000000000000000000000000000600052603160045260246000fdfea2646970667358221220b8c6115c346ba982a7e153e6fd4c8585e02ff6c2963bfa15ff531c7909ce960264736f6c63430008140033",
  "linkReferences": {},
  "deployedLinkReferences": {}
}