{
  "_format": "hh-sol-artifact-1",
  "contractName": "CoursesStorage",
  "sourceName": "contracts/CoursesStorage.sol",
  "abi": [
    {
      "inputs": [],
      "stateMutability": "payable",
      "type": "constructor"
    },
    {
      "inputs": [
        {
          "internalType": "uint256",
          "name": "courseId",
          "type": "uint256"
        }
      ],
      "name": "NotCourseAuthor",
      "type": "error"
    },
    {
      "anonymous": false,
      "inputs": [
        {
          "indexed": true,
          "internalType": "uint256",
          "name": "cardId",
          "type": "uint256"
        },
        {
          "indexed": false,
          "internalType": "string",
          "name": "word",
          "type": "string"
        },
        {
          "indexed": false,
          "internalType": "string",
          "name": "meaning",
          "type": "string"
        },
        {
          "indexed": false,
          "internalType": "string",
          "name": "example",
          "type": "string"
        },
        {
          "indexed": false,
          "internalType": "uint256",
          "name": "courseId",
          "type": "uint256"
        },
        {
          "indexed": false,
          "internalType": "string",
          "name": "img",
          "type": "string"
        }
      ],
      "name": "CardChange",
      "type": "event"
    },
    {
      "anonymous": false,
      "inputs": [
        {
          "indexed": true,
          "internalType": "uint256",
          "name": "courseId",
          "type": "uint256"
        },
        {
          "indexed": false,
          "internalType": "string",
          "name": "name",
          "type": "string"
        },
        {
          "indexed": false,
          "internalType": "string",
          "name": "description",
          "type": "string"
        },
        {
          "indexed": false,
          "internalType": "address",
          "name": "author",
          "type": "address"
        },
        {
          "indexed": false,
          "internalType": "string",
          "name": "img",
          "type": "string"
        }
      ],
      "name": "CourseChange",
      "type": "event"
    },
    {
      "inputs": [
        {
          "internalType": "uint256",
          "name": "cardId",
          "type": "uint256"
        }
      ],
      "name": "addUserCard",
      "outputs": [],
      "stateMutability": "nonpayable",
      "type": "function"
    },
    {
      "inputs": [],
      "name": "cardCount",
      "outputs": [
        {
          "internalType": "uint256",
          "name": "",
          "type": "uint256"
        }
      ],
      "stateMutability": "view",
      "type": "function"
    },
    {
      "inputs": [],
      "name": "courseCount",
      "outputs": [
        {
          "internalType": "uint256",
          "name": "",
          "type": "uint256"
        }
      ],
      "stateMutability": "view",
      "type": "function"
    },
    {
      "inputs": [
        {
          "internalType": "string",
          "name": "word",
          "type": "string"
        },
        {
          "internalType": "string",
          "name": "meaning",
          "type": "string"
        },
        {
          "internalType": "string",
          "name": "example",
          "type": "string"
        },
        {
          "internalType": "uint256",
          "name": "courseId",
          "type": "uint256"
        },
        {
          "internalType": "string",
          "name": "img",
          "type": "string"
        }
      ],
      "name": "createCard",
      "outputs": [],
      "stateMutability": "nonpayable",
      "type": "function"
    },
    {
      "inputs": [
        {
          "internalType": "string",
          "name": "name",
          "type": "string"
        },
        {
          "internalType": "string",
          "name": "description",
          "type": "string"
        },
        {
          "internalType": "string",
          "name": "img",
          "type": "string"
        }
      ],
      "name": "createCourse",
      "outputs": [],
      "stateMutability": "nonpayable",
      "type": "function"
    },
    {
      "inputs": [
        {
          "internalType": "uint256",
          "name": "cardId",
          "type": "uint256"
        }
      ],
      "name": "deleteCard",
      "outputs": [],
      "stateMutability": "nonpayable",
      "type": "function"
    },
    {
      "inputs": [
        {
          "internalType": "uint256",
          "name": "courseId",
          "type": "uint256"
        }
      ],
      "name": "deleteCourse",
      "outputs": [],
      "stateMutability": "nonpayable",
      "type": "function"
    },
    {
      "inputs": [
        {
          "internalType": "uint256",
          "name": "courseId",
          "type": "uint256"
        }
      ],
      "name": "getCardsByCourse",
      "outputs": [
        {
          "components": [
            {
              "internalType": "uint256",
              "name": "id",
              "type": "uint256"
            },
            {
              "internalType": "string",
              "name": "word",
              "type": "string"
            },
            {
              "internalType": "string",
              "name": "meaning",
              "type": "string"
            },
            {
              "internalType": "string",
              "name": "example",
              "type": "string"
            },
            {
              "internalType": "uint256",
              "name": "courseId",
              "type": "uint256"
            },
            {
              "internalType": "string",
              "name": "img",
              "type": "string"
            }
          ],
          "internalType": "struct CoursesStorage.Card[]",
          "name": "",
          "type": "tuple[]"
        }
      ],
      "stateMutability": "view",
      "type": "function"
    },
    {
      "inputs": [],
      "name": "getCourses",
      "outputs": [
        {
          "components": [
            {
              "internalType": "uint256",
              "name": "id",
              "type": "uint256"
            },
            {
              "internalType": "string",
              "name": "name",
              "type": "string"
            },
            {
              "internalType": "string",
              "name": "description",
              "type": "string"
            },
            {
              "internalType": "address",
              "name": "author",
              "type": "address"
            },
            {
              "internalType": "string",
              "name": "img",
              "type": "string"
            }
          ],
          "internalType": "struct CoursesStorage.Course[]",
          "name": "",
          "type": "tuple[]"
        }
      ],
      "stateMutability": "view",
      "type": "function"
    },
    {
      "inputs": [
        {
          "internalType": "address",
          "name": "author",
          "type": "address"
        }
      ],
      "name": "getCoursesByAuthor",
      "outputs": [
        {
          "components": [
            {
              "internalType": "uint256",
              "name": "id",
              "type": "uint256"
            },
            {
              "internalType": "string",
              "name": "name",
              "type": "string"
            },
            {
              "internalType": "string",
              "name": "description",
              "type": "string"
            },
            {
              "internalType": "address",
              "name": "author",
              "type": "address"
            },
            {
              "internalType": "string",
              "name": "img",
              "type": "string"
            }
          ],
          "internalType": "struct CoursesStorage.Course[]",
          "name": "",
          "type": "tuple[]"
        }
      ],
      "stateMutability": "view",
      "type": "function"
    },
    {
      "inputs": [],
      "name": "getUserCards",
      "outputs": [
        {
          "components": [
            {
              "internalType": "uint256",
              "name": "id",
              "type": "uint256"
            },
            {
              "internalType": "string",
              "name": "word",
              "type": "string"
            },
            {
              "internalType": "string",
              "name": "meaning",
              "type": "string"
            },
            {
              "internalType": "string",
              "name": "example",
              "type": "string"
            },
            {
              "internalType": "uint256",
              "name": "courseId",
              "type": "uint256"
            },
            {
              "internalType": "string",
              "name": "img",
              "type": "string"
            }
          ],
          "internalType": "struct CoursesStorage.Card[]",
          "name": "",
          "type": "tuple[]"
        }
      ],
      "stateMutability": "view",
      "type": "function"
    },
    {
      "inputs": [],
      "name": "receivedEther",
      "outputs": [
        {
          "internalType": "uint256",
          "name": "",
          "type": "uint256"
        }
      ],
      "stateMutability": "view",
      "type": "function"
    },
    {
      "inputs": [
        {
          "internalType": "uint256",
          "name": "cardId",
          "type": "uint256"
        }
      ],
      "name": "removeUserCard",
      "outputs": [],
      "stateMutability": "nonpayable",
      "type": "function"
    },
    {
      "inputs": [
        {
          "internalType": "uint256",
          "name": "cardId",
          "type": "uint256"
        },
        {
          "internalType": "string",
          "name": "word",
          "type": "string"
        },
        {
          "internalType": "string",
          "name": "meaning",
          "type": "string"
        },
        {
          "internalType": "string",
          "name": "example",
          "type": "string"
        },
        {
          "internalType": "string",
          "name": "img",
          "type": "string"
        }
      ],
      "name": "updateCard",
      "outputs": [],
      "stateMutability": "nonpayable",
      "type": "function"
    },
    {
      "inputs": [
        {
          "internalType": "uint256",
          "name": "courseId",
          "type": "uint256"
        },
        {
          "internalType": "string",
          "name": "name",
          "type": "string"
        },
        {
          "internalType": "string",
          "name": "description",
          "type": "string"
        },
        {
          "internalType": "string",
          "name": "img",
          "type": "string"
        }
      ],
      "name": "updateCourse",
      "outputs": [],
      "stateMutability": "nonpayable",
      "type": "function"
    },
    {
      "stateMutability": "payable",
      "type": "receive"
    }
  ],
  "bytecode": "0x608060405260006001556000600555612d648061001d6000396000f3fe6080604052600436106100ec5760003560e01c80636a264f011161008a5780639dad8d22116100595780639dad8d2214610300578063cc12647914610329578063cd53e45514610354578063e6676ad11461037f5761010a565b80636a264f011461024857806370e24a2f1461027157806389d45b86146102ae5780638ec99d90146102d75761010a565b80635069ca2e116100c65780635069ca2e1461018e5780635e1acf65146101cb57806364b48788146101f4578063660551591461021d5761010a565b80631b6cde101461010f5780632194f3141461013a57806348bf10c9146101655761010a565b3661010a57346000808282546101029190611ef9565b925050819055005b600080fd5b34801561011b57600080fd5b506101246103a8565b6040516101319190611f3c565b60405180910390f35b34801561014657600080fd5b5061014f6103ae565b60405161015c9190612156565b60405180910390f35b34801561017157600080fd5b5061018c600480360381019061018791906122ed565b610799565b005b34801561019a57600080fd5b506101b560048036038101906101b091906123d8565b610944565b6040516101c29190612156565b60405180910390f35b3480156101d757600080fd5b506101f260048036038101906101ed91906123d8565b610cad565b005b34801561020057600080fd5b5061021b600480360381019061021691906123d8565b610e13565b005b34801561022957600080fd5b50610232610e5f565b60405161023f9190611f3c565b60405180910390f35b34801561025457600080fd5b5061026f600480360381019061026a9190612405565b610e65565b005b34801561027d57600080fd5b506102986004803603810190610293919061254e565b61104e565b6040516102a591906126d0565b60405180910390f35b3480156102ba57600080fd5b506102d560048036038101906102d091906126f2565b6113f5565b005b3480156102e357600080fd5b506102fe60048036038101906102f99190612799565b611595565b005b34801561030c57600080fd5b50610327600480360381019061032291906123d8565b6116ed565b005b34801561033557600080fd5b5061033e611862565b60405161034b91906126d0565b60405180910390f35b34801561036057600080fd5b50610369611b50565b6040516103769190611f3c565b60405180910390f35b34801561038b57600080fd5b506103a660048036038101906103a191906123d8565b611b56565b005b60055481565b606060006103f9600b60003373ffffffffffffffffffffffffffffffffffffffff1673ffffffffffffffffffffffffffffffffffffffff168152602001908152602001600020611ba2565b67ffffffffffffffff811115610412576104116121c2565b5b60405190808252806020026020018201604052801561044b57816020015b610438611de8565b8152602001906001900390816104305790505b50905060005b610498600b60003373ffffffffffffffffffffffffffffffffffffffff1673ffffffffffffffffffffffffffffffffffffffff168152602001908152602001600020611ba2565b81101561079157600660006104eb600b60003373ffffffffffffffffffffffffffffffffffffffff1673ffffffffffffffffffffffffffffffffffffffff16815260200190815260200160002084611bb7565b81526020019081526020016000206040518060c00160405290816000820154815260200160018201805461051e90612883565b80601f016020809104026020016040519081016040528092919081815260200182805461054a90612883565b80156105975780601f1061056c57610100808354040283529160200191610597565b820191906000526020600020905b81548152906001019060200180831161057a57829003601f168201915b505050505081526020016002820180546105b090612883565b80601f01602080910402602001604051908101604052809291908181526020018280546105dc90612883565b80156106295780601f106105fe57610100808354040283529160200191610629565b820191906000526020600020905b81548152906001019060200180831161060c57829003601f168201915b5050505050815260200160038201805461064290612883565b80601f016020809104026020016040519081016040528092919081815260200182805461066e90612883565b80156106bb5780601f10610690576101008083540402835291602001916106bb565b820191906000526020600020905b81548152906001019060200180831161069e57829003601f168201915b50505050508152602001600482015481526020016005820180546106de90612883565b80601f016020809104026020016040519081016040528092919081815260200182805461070a90612883565b80156107575780601f1061072c57610100808354040283529160200191610757565b820191906000526020600020905b81548152906001019060200180831161073a57829003601f168201915b505050505081525050828281518110610773576107726128b4565b5b60200260200101819052508080610789906128e3565b915050610451565b508091505090565b60066000868152602001908152602001600020600401543373ffffffffffffffffffffffffffffffffffffffff166002600083815260200190815260200160002060030160009054906101000a900473ffffffffffffffffffffffffffffffffffffffff1673ffffffffffffffffffffffffffffffffffffffff161461085657806040517ff034e05400000000000000000000000000000000000000000000000000000000815260040161084d9190611f3c565b60405180910390fd5b846006600088815260200190815260200160002060010190816108799190612ad7565b508360066000888152602001908152602001600020600201908161089d9190612ad7565b50826006600088815260200190815260200160002060030190816108c19190612ad7565b50816006600088815260200190815260200160002060050190816108e59190612ad7565b50857fe2898b4a13a1565a4873eaafeeb3ee6c6e2732b4cb5a9931bcfd3c5076119935868686600660008c81526020019081526020016000206004015487604051610934959493929190612bf3565b60405180910390a2505050505050565b60606000610963600a6000858152602001908152602001600020611ba2565b67ffffffffffffffff81111561097c5761097b6121c2565b5b6040519080825280602002602001820160405280156109b557816020015b6109a2611de8565b81526020019060019003908161099a5790505b50905060005b6109d6600a6000868152602001908152602001600020611ba2565b811015610ca357600660006109fd600a600088815260200190815260200160002084611bb7565b81526020019081526020016000206040518060c001604052908160008201548152602001600182018054610a3090612883565b80601f0160208091040260200160405190810160405280929190818152602001828054610a5c90612883565b8015610aa95780601f10610a7e57610100808354040283529160200191610aa9565b820191906000526020600020905b815481529060010190602001808311610a8c57829003601f168201915b50505050508152602001600282018054610ac290612883565b80601f0160208091040260200160405190810160405280929190818152602001828054610aee90612883565b8015610b3b5780601f10610b1057610100808354040283529160200191610b3b565b820191906000526020600020905b815481529060010190602001808311610b1e57829003601f168201915b50505050508152602001600382018054610b5490612883565b80601f0160208091040260200160405190810160405280929190818152602001828054610b8090612883565b8015610bcd5780601f10610ba257610100808354040283529160200191610bcd565b820191906000526020600020905b815481529060010190602001808311610bb057829003601f168201915b5050505050815260200160048201548152602001600582018054610bf090612883565b80601f0160208091040260200160405190810160405280929190818152602001828054610c1c90612883565b8015610c695780601f10610c3e57610100808354040283529160200191610c69565b820191906000526020600020905b815481529060010190602001808311610c4c57829003601f168201915b505050505081525050828281518110610c8557610c846128b4565b5b60200260200101819052508080610c9b906128e3565b9150506109bb565b5080915050919050565b60066000828152602001908152602001600020600401543373ffffffffffffffffffffffffffffffffffffffff166002600083815260200190815260200160002060030160009054906101000a900473ffffffffffffffffffffffffffffffffffffffff1673ffffffffffffffffffffffffffffffffffffffff1614610d6a57806040517ff034e054000000000000000000000000000000000000000000000000000000008152600401610d619190611f3c565b60405180910390fd5b610d9c600a60006006600086815260200190815260200160002060040154815260200190815260200160002083611bd1565b50610da8600783611bd1565b5060066000838152602001908152602001600020600080820160009055600182016000610dd59190611e1e565b600282016000610de59190611e1e565b600382016000610df59190611e1e565b6004820160009055600582016000610e0d9190611e1e565b50505050565b610e5b600b60003373ffffffffffffffffffffffffffffffffffffffff1673ffffffffffffffffffffffffffffffffffffffff16815260200190815260200160002082611beb565b5050565b60015481565b813373ffffffffffffffffffffffffffffffffffffffff166002600083815260200190815260200160002060030160009054906101000a900473ffffffffffffffffffffffffffffffffffffffff1673ffffffffffffffffffffffffffffffffffffffff1614610f0c57806040517ff034e054000000000000000000000000000000000000000000000000000000008152600401610f039190611f3c565b60405180910390fd5b60056000815480929190610f1f906128e3565b91905055506040518060c00160405280600554815260200187815260200186815260200185815260200184815260200183815250600660006005548152602001908152602001600020600082015181600001556020820151816001019081610f879190612ad7565b506040820151816002019081610f9d9190612ad7565b506060820151816003019081610fb39190612ad7565b506080820151816004015560a0820151816005019081610fd39190612ad7565b50905050610ff5600a6000858152602001908152602001600020600554611beb565b506110036007600554611beb565b506005547fe2898b4a13a1565a4873eaafeeb3ee6c6e2732b4cb5a9931bcfd3c5076119935878787878760405161103e959493929190612bf3565b60405180910390a2505050505050565b60606000611099600960008573ffffffffffffffffffffffffffffffffffffffff1673ffffffffffffffffffffffffffffffffffffffff168152602001908152602001600020611ba2565b67ffffffffffffffff8111156110b2576110b16121c2565b5b6040519080825280602002602001820160405280156110eb57816020015b6110d8611e5e565b8152602001906001900390816110d05790505b50905060005b611138600960008673ffffffffffffffffffffffffffffffffffffffff1673ffffffffffffffffffffffffffffffffffffffff168152602001908152602001600020611ba2565b8110156113eb576002600061118b600960008873ffffffffffffffffffffffffffffffffffffffff1673ffffffffffffffffffffffffffffffffffffffff16815260200190815260200160002084611bb7565b81526020019081526020016000206040518060a0016040529081600082015481526020016001820180546111be90612883565b80601f01602080910402602001604051908101604052809291908181526020018280546111ea90612883565b80156112375780601f1061120c57610100808354040283529160200191611237565b820191906000526020600020905b81548152906001019060200180831161121a57829003601f168201915b5050505050815260200160028201805461125090612883565b80601f016020809104026020016040519081016040528092919081815260200182805461127c90612883565b80156112c95780601f1061129e576101008083540402835291602001916112c9565b820191906000526020600020905b8154815290600101906020018083116112ac57829003601f168201915b505050505081526020016003820160009054906101000a900473ffffffffffffffffffffffffffffffffffffffff1673ffffffffffffffffffffffffffffffffffffffff1673ffffffffffffffffffffffffffffffffffffffff16815260200160048201805461133890612883565b80601f016020809104026020016040519081016040528092919081815260200182805461136490612883565b80156113b15780601f10611386576101008083540402835291602001916113b1565b820191906000526020600020905b81548152906001019060200180831161139457829003601f168201915b5050505050815250508282815181106113cd576113cc6128b4565b5b602002602001018190525080806113e3906128e3565b9150506110f1565b5080915050919050565b60016000815480929190611408906128e3565b91905055506040518060a0016040528060015481526020018481526020018381526020013373ffffffffffffffffffffffffffffffffffffffff168152602001828152506002600060015481526020019081526020016000206000820151816000015560208201518160010190816114809190612ad7565b5060408201518160020190816114969190612ad7565b5060608201518160030160006101000a81548173ffffffffffffffffffffffffffffffffffffffff021916908373ffffffffffffffffffffffffffffffffffffffff16021790555060808201518160040190816114f39190612ad7565b50905050611541600960003373ffffffffffffffffffffffffffffffffffffffff1673ffffffffffffffffffffffffffffffffffffffff168152602001908152602001600020600154611beb565b5061154f6003600154611beb565b506001547fb8f86a692781437a791274be51de7d8eb905efece7fbc2d381b9ecbdb4e064a0848433856040516115889493929190612c71565b60405180910390a2505050565b833373ffffffffffffffffffffffffffffffffffffffff166002600083815260200190815260200160002060030160009054906101000a900473ffffffffffffffffffffffffffffffffffffffff1673ffffffffffffffffffffffffffffffffffffffff161461163c57806040517ff034e0540000000000000000000000000000000000000000000000000000000081526004016116339190611f3c565b60405180910390fd5b8360026000878152602001908152602001600020600101908161165f9190612ad7565b50826002600087815260200190815260200160002060020190816116839190612ad7565b50816002600087815260200190815260200160002060040190816116a79190612ad7565b50847fb8f86a692781437a791274be51de7d8eb905efece7fbc2d381b9ecbdb4e064a0858533866040516116de9493929190612c71565b60405180910390a25050505050565b803373ffffffffffffffffffffffffffffffffffffffff166002600083815260200190815260200160002060030160009054906101000a900473ffffffffffffffffffffffffffffffffffffffff1673ffffffffffffffffffffffffffffffffffffffff161461179457806040517ff034e05400000000000000000000000000000000000000000000000000000000815260040161178b9190611f3c565b60405180910390fd5b6117dc600960003373ffffffffffffffffffffffffffffffffffffffff1673ffffffffffffffffffffffffffffffffffffffff16815260200190815260200160002083611bd1565b506117e8600383611bd1565b50600260008381526020019081526020016000206000808201600090556001820160006118159190611e1e565b6002820160006118259190611e1e565b6003820160006101000a81549073ffffffffffffffffffffffffffffffffffffffff021916905560048201600061185c9190611e1e565b50505050565b606060006118706003611ba2565b67ffffffffffffffff811115611889576118886121c2565b5b6040519080825280602002602001820160405280156118c257816020015b6118af611e5e565b8152602001906001900390816118a75790505b50905060005b6118d26003611ba2565b811015611b4857600260006118e8600384611bb7565b81526020019081526020016000206040518060a00160405290816000820154815260200160018201805461191b90612883565b80601f016020809104026020016040519081016040528092919081815260200182805461194790612883565b80156119945780601f1061196957610100808354040283529160200191611994565b820191906000526020600020905b81548152906001019060200180831161197757829003601f168201915b505050505081526020016002820180546119ad90612883565b80601f01602080910402602001604051908101604052809291908181526020018280546119d990612883565b8015611a265780601f106119fb57610100808354040283529160200191611a26565b820191906000526020600020905b815481529060010190602001808311611a0957829003601f168201915b505050505081526020016003820160009054906101000a900473ffffffffffffffffffffffffffffffffffffffff1673ffffffffffffffffffffffffffffffffffffffff1673ffffffffffffffffffffffffffffffffffffffff168152602001600482018054611a9590612883565b80601f0160208091040260200160405190810160405280929190818152602001828054611ac190612883565b8015611b0e5780601f10611ae357610100808354040283529160200191611b0e565b820191906000526020600020905b815481529060010190602001808311611af157829003601f168201915b505050505081525050828281518110611b2a57611b296128b4565b5b60200260200101819052508080611b40906128e3565b9150506118c8565b508091505090565b60005481565b611b9e600b60003373ffffffffffffffffffffffffffffffffffffffff1673ffffffffffffffffffffffffffffffffffffffff16815260200190815260200160002082611bd1565b5050565b6000611bb082600001611c05565b9050919050565b6000611bc68360000183611c16565b60001c905092915050565b6000611be3836000018360001b611c41565b905092915050565b6000611bfd836000018360001b611d55565b905092915050565b600081600001805490509050919050565b6000826000018281548110611c2e57611c2d6128b4565b5b9060005260206000200154905092915050565b60008083600101600084815260200190815260200160002054905060008114611d49576000600182611c739190612ccb565b9050600060018660000180549050611c8b9190612ccb565b9050808214611cfa576000866000018281548110611cac57611cab6128b4565b5b9060005260206000200154905080876000018481548110611cd057611ccf6128b4565b5b90600052602060002001819055508387600101600083815260200190815260200160002081905550505b85600001805480611d0e57611d0d612cff565b5b600190038181906000526020600020016000905590558560010160008681526020019081526020016000206000905560019350505050611d4f565b60009150505b92915050565b6000611d618383611dc5565b611dba578260000182908060018154018082558091505060019003906000526020600020016000909190919091505582600001805490508360010160008481526020019081526020016000208190555060019050611dbf565b600090505b92915050565b600080836001016000848152602001908152602001600020541415905092915050565b6040518060c001604052806000815260200160608152602001606081526020016060815260200160008152602001606081525090565b508054611e2a90612883565b6000825580601f10611e3c5750611e5b565b601f016020900490600052602060002090810190611e5a9190611ea3565b5b50565b6040518060a00160405280600081526020016060815260200160608152602001600073ffffffffffffffffffffffffffffffffffffffff168152602001606081525090565b5b80821115611ebc576000816000905550600101611ea4565b5090565b6000819050919050565b7f4e487b7100000000000000000000000000000000000000000000000000000000600052601160045260246000fd5b6000611f0482611ec0565b9150611f0f83611ec0565b9250828201905080821115611f2757611f26611eca565b5b92915050565b611f3681611ec0565b82525050565b6000602082019050611f516000830184611f2d565b92915050565b600081519050919050565b600082825260208201905092915050565b6000819050602082019050919050565b611f8c81611ec0565b82525050565b600081519050919050565b600082825260208201905092915050565b60005b83811015611fcc578082015181840152602081019050611fb1565b60008484015250505050565b6000601f19601f8301169050919050565b6000611ff482611f92565b611ffe8185611f9d565b935061200e818560208601611fae565b61201781611fd8565b840191505092915050565b600060c08301600083015161203a6000860182611f83565b50602083015184820360208601526120528282611fe9565b9150506040830151848203604086015261206c8282611fe9565b915050606083015184820360608601526120868282611fe9565b915050608083015161209b6080860182611f83565b5060a083015184820360a08601526120b38282611fe9565b9150508091505092915050565b60006120cc8383612022565b905092915050565b6000602082019050919050565b60006120ec82611f57565b6120f68185611f62565b93508360208202850161210885611f73565b8060005b85811015612144578484038952815161212585826120c0565b9450612130836120d4565b925060208a0199505060018101905061210c565b50829750879550505050505092915050565b6000602082019050818103600083015261217081846120e1565b905092915050565b6000604051905090565b600080fd5b600080fd5b61219581611ec0565b81146121a057600080fd5b50565b6000813590506121b28161218c565b92915050565b600080fd5b600080fd5b7f4e487b7100000000000000000000000000000000000000000000000000000000600052604160045260246000fd5b6121fa82611fd8565b810181811067ffffffffffffffff82111715612219576122186121c2565b5b80604052505050565b600061222c612178565b905061223882826121f1565b919050565b600067ffffffffffffffff821115612258576122576121c2565b5b61226182611fd8565b9050602081019050919050565b82818337600083830152505050565b600061229061228b8461223d565b612222565b9050828152602081018484840111156122ac576122ab6121bd565b5b6122b784828561226e565b509392505050565b600082601f8301126122d4576122d36121b8565b5b81356122e484826020860161227d565b91505092915050565b600080600080600060a0868803121561230957612308612182565b5b6000612317888289016121a3565b955050602086013567ffffffffffffffff81111561233857612337612187565b5b612344888289016122bf565b945050604086013567ffffffffffffffff81111561236557612364612187565b5b612371888289016122bf565b935050606086013567ffffffffffffffff81111561239257612391612187565b5b61239e888289016122bf565b925050608086013567ffffffffffffffff8111156123bf576123be612187565b5b6123cb888289016122bf565b9150509295509295909350565b6000602082840312156123ee576123ed612182565b5b60006123fc848285016121a3565b91505092915050565b600080600080600060a0868803121561242157612420612182565b5b600086013567ffffffffffffffff81111561243f5761243e612187565b5b61244b888289016122bf565b955050602086013567ffffffffffffffff81111561246c5761246b612187565b5b612478888289016122bf565b945050604086013567ffffffffffffffff81111561249957612498612187565b5b6124a5888289016122bf565b93505060606124b6888289016121a3565b925050608086013567ffffffffffffffff8111156124d7576124d6612187565b5b6124e3888289016122bf565b9150509295509295909350565b600073ffffffffffffffffffffffffffffffffffffffff82169050919050565b600061251b826124f0565b9050919050565b61252b81612510565b811461253657600080fd5b50565b60008135905061254881612522565b92915050565b60006020828403121561256457612563612182565b5b600061257284828501612539565b91505092915050565b600081519050919050565b600082825260208201905092915050565b6000819050602082019050919050565b6125b081612510565b82525050565b600060a0830160008301516125ce6000860182611f83565b50602083015184820360208601526125e68282611fe9565b915050604083015184820360408601526126008282611fe9565b915050606083015161261560608601826125a7565b506080830151848203608086015261262d8282611fe9565b9150508091505092915050565b600061264683836125b6565b905092915050565b6000602082019050919050565b60006126668261257b565b6126708185612586565b93508360208202850161268285612597565b8060005b858110156126be578484038952815161269f858261263a565b94506126aa8361264e565b925060208a01995050600181019050612686565b50829750879550505050505092915050565b600060208201905081810360008301526126ea818461265b565b905092915050565b60008060006060848603121561270b5761270a612182565b5b600084013567ffffffffffffffff81111561272957612728612187565b5b612735868287016122bf565b935050602084013567ffffffffffffffff81111561275657612755612187565b5b612762868287016122bf565b925050604084013567ffffffffffffffff81111561278357612782612187565b5b61278f868287016122bf565b9150509250925092565b600080600080608085870312156127b3576127b2612182565b5b60006127c1878288016121a3565b945050602085013567ffffffffffffffff8111156127e2576127e1612187565b5b6127ee878288016122bf565b935050604085013567ffffffffffffffff81111561280f5761280e612187565b5b61281b878288016122bf565b925050606085013567ffffffffffffffff81111561283c5761283b612187565b5b612848878288016122bf565b91505092959194509250565b7f4e487b7100000000000000000000000000000000000000000000000000000000600052602260045260246000fd5b6000600282049050600182168061289b57607f821691505b6020821081036128ae576128ad612854565b5b50919050565b7f4e487b7100000000000000000000000000000000000000000000000000000000600052603260045260246000fd5b60006128ee82611ec0565b91507fffffffffffffffffffffffffffffffffffffffffffffffffffffffffffffffff82036129205761291f611eca565b5b600182019050919050565b60008190508160005260206000209050919050565b60006020601f8301049050919050565b600082821b905092915050565b60006008830261298d7fffffffffffffffffffffffffffffffffffffffffffffffffffffffffffffffff82612950565b6129978683612950565b95508019841693508086168417925050509392505050565b6000819050919050565b60006129d46129cf6129ca84611ec0565b6129af565b611ec0565b9050919050565b6000819050919050565b6129ee836129b9565b612a026129fa826129db565b84845461295d565b825550505050565b600090565b612a17612a0a565b612a228184846129e5565b505050565b5b81811015612a4657612a3b600082612a0f565b600181019050612a28565b5050565b601f821115612a8b57612a5c8161292b565b612a6584612940565b81016020851015612a74578190505b612a88612a8085612940565b830182612a27565b50505b505050565b600082821c905092915050565b6000612aae60001984600802612a90565b1980831691505092915050565b6000612ac78383612a9d565b9150826002028217905092915050565b612ae082611f92565b67ffffffffffffffff811115612af957612af86121c2565b5b612b038254612883565b612b0e828285612a4a565b600060209050601f831160018114612b415760008415612b2f578287015190505b612b398582612abb565b865550612ba1565b601f198416612b4f8661292b565b60005b82811015612b7757848901518255600182019150602085019450602081019050612b52565b86831015612b945784890151612b90601f891682612a9d565b8355505b6001600288020188555050505b505050505050565b600082825260208201905092915050565b6000612bc582611f92565b612bcf8185612ba9565b9350612bdf818560208601611fae565b612be881611fd8565b840191505092915050565b600060a0820190508181036000830152612c0d8188612bba565b90508181036020830152612c218187612bba565b90508181036040830152612c358186612bba565b9050612c446060830185611f2d565b8181036080830152612c568184612bba565b90509695505050505050565b612c6b81612510565b82525050565b60006080820190508181036000830152612c8b8187612bba565b90508181036020830152612c9f8186612bba565b9050612cae6040830185612c62565b8181036060830152612cc08184612bba565b905095945050505050565b6000612cd682611ec0565b9150612ce183611ec0565b9250828203905081811115612cf957612cf8611eca565b5b92915050565b7f4e487b7100000000000000000000000000000000000000000000000000000000600052603160045260246000fdfea2646970667358221220f5047f97b453414e0c589657044d9f31b5b38be3238a160cc74cabc362c5af9e64736f6c63430008140033",
  "linkReferences": {},
  "deployedLinkReferences": {}
}